:10057D00486561727420526174653A2020202020F4
:10058D00002020202020202020202020202020207E
:10059D0020005761726E696E67204C203A20202032
:1005AD002020005761726E696E672048203A202026
:1005BD002020200041626E6F726D616C2068656154
:1005CD0072742072617465212043757272656E7448
:1005DD0020686561727420726174652076616C7536
:1005ED00652069733A0048656172742072617465A3
:1005FD00206973206E6F726D616C2120437572726C
:10060D00656E742068656172742072617465207600
:09061D00616C75652069733A00F7
:0907FB00014B00014A64014C2885
:1004030012000E1207671207E51206F6D28CD2CA43
:10041300E516606BE4F516750F01E50A24FE60131B
:1004230014603224027058050BE50B64037050F519
:100433000B804CE50BB40209E54AC39496500205C0
:100443004AE50B64017038E54A14FFE54CC39F503D
:100453002E054C802AE50BB40217E54C2401FFE47A
:1004630033FED3E54A9FEE6480F87480984002150A
:100473004AE50BB40109E54CD3941E4002154CE543
:100483000F608DE4F50FE510700AE54DB4300E757D
:100493004D208009754D20754E20754F20E50B14B6
:1004A300602214607A240260030204131206F67BAE
:1004B300FF7A05798E7D107FC01207007B007A00DA
:1004C300794D80511206F67B007A00794D7D037FCA
:1004D3008D120700E54C75F064842430F511E54C6A
:1004E30075F06484E5F075F00A842430F512E54C68
:1004F30075F00A84E5F02430F513E511B430037583
:1005030011207BFF7A05799F7D107FC01207007B46
:10051300007A0079117D037FCD12070002041312C4
:1005230006F67B007A00794D7D037F8D120700E587
:100533004A75F064842430F50CE54A75F06484E56B
:10054300F075F00A842430F50DE54A75F00A84E568
:10055300F02430F50EE50CB43003750C207BFF7AE4
:100563000579B07D107FC01207007B007A00790CFB
:0A0573007D037FCD12070002041380
:03002B0002002EA2
:10002E00C0E0C0F0C083C082C0D075D000C000C098
:0D003E0001C002C003C004C005C006C00719
:10004B0075CDD875CCF0E508146013146038240214
:10005B007042E5B054076407603A05088036E5B096
:10006B0054076407602B0508E5B0540724FD6011A5
:10007B0024FE600814701D750A018018750A028031
:10008B0013750A03800EE5B05407FFBF07067516FC
:10009B0001750800E50914601B1460201460281416
:1000AB006030240460030202023090030202020556
:1000BB000902020220900D0509020202209005059B
:1000CB00090202020201FF20900505090202020249
:1000DB0001FF209003020202E54B64016003020161
:1000EB00F6AE14AF15AB07AA06F9F87F607EEAFDF2
:1000FB00FC1206B2E47B64FAF9F81206B2EF243074
:10010B00F54DAE14AF15AB07AA06E4F9F87F607E88
:10011B00EAFDFC1206B2E47B64FAF9F81206B2AC03
:10012B0000AD01AE02AF03E47B0AFAF9F81206B296
:10013B00EF2430F54EAE14AF15AB07AA06E4F9F871
:10014B007F607EEAFDFC1206B2E47B0AFAF9F81234
:10015B0006B2EB2430F54FAE14AF15AB07AA06E48D
:10016B00F9F87F607EEAFDFC1206B2A804A905AA85
:10017B0006AB07AF4AE4FCFDFEC31202365028AEB5
:10018B0014AF15AB07AA06E4F9F87F607EEAFDFC15
:10019B001206B2A804A905AA06AB07AF4CE4FCFDF6
:1001AB00FED31202365010C2A478177C007D007B60
:1001BB00FF7A0579C1800ED2A478177C007D007B75
:1001CB00FF7A0579F31203187B007A00791712076F
:1001DB00917B007A00794D120791750F0175140010
:1001EB00751500754B007510008009751400751599
:0701FB0000754B01750900BE
:10020200D007D006D005D004D003D002D001D00050
:0B021200D0D0D082D083D0F0D0E032FA
:03000B00020737B2
:10073700C0E0C0D0758CFC758A180515E5157002E8
:100747000514B48816E514B4131175140075150053
:10075700750F01754B00751001D2A4D0D0D0E032CF
:0A06F6007BFF7A05797D7D107F807F
:080700008D538B548A55895674
:10070800E4F5571207CFE4F557E557C39553501E44
:10071800AB54AA55A95612021DF558FF1207B97411
:0E072800012556F556E43555F555055780DB8D
:0107360022A0
:1007B9008F59120805C2A7D2A5C2A600D2A785598A
:0607C90080C2A7C2A522B8
:1007CF008F59120805C2A7C2A5C2A600D2A7855984
:0607DF0080C2A7C2A522A2
:100767001208051208057F381207CF7F381207CF06
:100777007F381207CF7F061207CF7F0C1207CF7F74
:0A078700011207CF12080502080551
:080805007F0A7EB7DEFEDFFC76
:01080D0022C8
:10000E0043878075985053890F438920758BF375FC
:0B001E008DF3C2ABD28ED2AFD2AC2269
:1007E500D2AFD2A9D2AD758911758CFC758A1875F1
:0607F500CDD875CCF02206
:100791008B508A518952AB50AA51A95212021D6045
:1007A100160552E5527002055114F912021DF59910
:0807B1003099FDC29980DF229E
:03000000020626CF
:0C062600787FE4F6D8FD75815902066D5E
:10021D00BB010689828A83E0225002E722BBFE02DF
:09022D00E32289828A83E4932212
:1006B200C2D5E830E70FB2D5E4C39BFBE49AFAE473
:1006C20099F9E498F8EC30E717B2D51206E812036C
:1006D20071E4C39BFBE49AFAE499F9E498F8800385
:1006E20012037130D50DE4C39FFFE49EFEE49DFD2D
:0406F200E49CFC2266
:10023600EB9FF5F0EA9E42F0E99D42F0EC6480C83F
:0602460064809845F022DF
:10024C00E709F60870FA8046E709F20870FA803E72
:10025C0088828C83E709F0A370FA807EE309F608A4
:10026C0070FA8076E309F20870FA806E88828C83CB
:10027C00E309F0A370FA806289828A83E0A3F6080E
:10028C0070FA805689828A83E0A3F20870FA804A59
:10029C0080D280FA80C680D4806580F28031801054
:1002AC0080A680EA809A80A880DA80E280CA8031B9
:1002BC0089828A83ECFAE493A3C8C582C8CCC5832F
:1002CC00CCF0A3C8C582C8CCC583CC70E9800D899D
:1002DC00828A83E493A3F60870F9ECFAA9F0EDFB9B
:1002EC002289828A83ECFAE0A3C8C582C8CCC58374
:1002FC00CCF0A3C8C582C8CCC583CC70EA80DD899C
:10030C00828A83E493A3F20870F980CE88F0ED24FE
:10031C0002B4040050C4F582EB2402B4040050BAB9
:09032C00232345822390029C73F7
:10063200020403E493A3F8E493A34003F68001F2D7
:1006420008DFF48029E493A3F85407240CC8C333C9
:10065200C4540F4420C8834004F456800146F6DF98
:10066200E4800B01020408102040809007FBE47E26
:10067200019360BCA3FF543F30E509541FFEE4938D
:10068200A360010ECF54C025E060A840B8E493A354
:10069200FAE493A3F8E493A3C8C582C8CAC583CA7F
:1006A200F0A3C8C582C8CAC583CADFE9DEE780BE37
:0108040000F3
:1003350075F008758200EF2FFFEE33FECD33CDCC7F
:1003450033CCC58233C5829BED9AEC99E582984002
:100355000CF582EE9BFEED9AFDEC99FC0FD5F0D6DF
:10036500E4CEFBE4CDFAE4CCF9A88222B800C1B909
:100375000059BA002DEC8BF084CFCECDFCE5F0CB47
:10038500F97818EF2FFFEE33FEED33FDEC33FCEB80
:1003950033FB10D703994004EB99FB0FD8E5E4F93B
:1003A500FA227818EF2FFFEE33FEED33FDEC33FC28
:1003B500C933C910D7059BE99A4007EC9BFCE99A1C
:1003C500F90FD8E0E4C9FAE4CCFB2275F010EF2F61
:1003D500FFEE33FEED33FDCC33CCC833C810D70761
:1003E5009BEC9AE899400AED9BFDEC9AFCE899F89C
:0E03F5000FD5F0DAE4CDFBE4CCFAE4C8F9222F
:00000001FF
