:1004E300486561727420526174653A20202020208F
:1004F3000020202020202020202020202020202019
:1005030020005761726E696E67204C203A202020CC
:100513002020005761726E696E672048203A2020C0
:040523002020200074
:09000E0001180001176401192812
:1001E0001206061205DC12062112056BD28CD28E85
:1001F000E516606BE4F516750F01E50A24FE601341
:1002000014603224027058050BE50B64037050F53E
:100210000B804CE50BB40209E517C3949650020518
:1002200017E50B64017038E51714FFE519C39F50FB
:100230002E0519802AE50BB40217E5192401FFE405
:1002400033FED3E5179FEE6480F874809840021562
:1002500017E50BB40109E519D3941E40021519E501
:100260000F608DE4F50FE510700AE51AB4300E75D5
:100270001A208009751A20751B20751C20E50B14A7
:10028000602214607A240260030201F012056B7B85
:10029000FF7A0479F47D107FC01205757B007A0027
:1002A000791A805112056B7B007A00791A7D037FE1
:1002B0008D120575E51975F064842430F511E51982
:1002C00075F06484E5F075F00A842430F512E519C0
:1002D00075F00A84E5F02430F513E511B4300375A8
:1002E00011207BFF7A0579057D107FC01205757B93
:1002F000007A0079117D037FCD1205750201F0129D
:10030000056B7B007A00791A7D037F8D120575E5F8
:100310001775F064842430F50CE51775F06484E5F6
:10032000F075F00A842430F50DE51775F00A84E5C0
:10033000F02430F50EE50CB43003750C207BFF7A09
:100340000579167D107FC01205757B007A00790C47
:0A0350007D037FCD1205750201F058
:03001B0002001EC2
:10001E00C0E0C0F0C083C082C0D075D000C000C0A8
:0D002E0001C002C003C004C005C006C00729
:10003B00758DD8758BF0E5081460131460382402A5
:10004B007042E5B054076407603A05088036E5B0A6
:10005B0054076407602B0508E5B0540724FD6011B5
:10006B0024FE600814701D750A018018750A028041
:10007B0013750A03800EE5B05407FFBF070675160C
:10008B0001750800E50914601B1460201460281426
:10009B006030240460030201C53090030201C505E2
:1000AB00090201C520900D05090201C52090050527
:1000BB00090201C50201C220900505090201C50212
:1000CB0001C22090030201C5E5186401600302011F
:1000DB00B9AE14AF15AB07AA06F9F87F607EEAFD3F
:1000EB00FC120527E47B64FAF9F8120527EF24309C
:1000FB00F51AAE14AF15AB07AA06E4F9F87F607ECC
:10010B00EAFDFC120527E47B64FAF9F8120527AC2B
:10011B0000AD01AE02AF03E47B0AFAF9F812052732
:10012B00EF2430F51BAE14AF15AB07AA06E4F9F8B4
:10013B007F607EEAFDFC120527E47B0AFAF9F812D0
:10014B000527EB2430F51CAE14AF15AB07AA06E45C
:10015B00F9F87F607EEAFDFC120527A804A905AA21
:10016B0006AB07AF17E4FCFDFEC31203735028AEBA
:10017B0014AF15AB07AA06E4F9F87F607EEAFDFC25
:10018B00120527A804A905AA06AB07AF19E4FCFDC5
:10019B00FED31203735004C2A48002D2A4750F01C4
:1001AB00751400751500751800751000800975140D
:0A01BB0000751500751801750900A4
:1001C500D007D006D005D004D003D002D001D0008E
:0B01D500D0D0D082D083D0F0D0E03238
:03000B000205AC3F
:1005AC00C0E0C0D0758CFC758A180515E515700275
:1005BC000514B48816E514B41311751400751500E0
:1005CC00750F01751800751001D2A4D0D0D0E0328F
:0A056B007BFF7A0479E37D107F80A6
:080575008D1D8B1E8A1F8920D9
:10057D00E4F521120651E4F521E521C3951D501E28
:10058D00AB1EAA1FA92012035AF522FF12063B74B7
:0E059D00012520F520E4351FF51F052180DB28
:0105AB00222D
:10063B008F23120667C2A7D2A5C2A600D2A7852315
:06064B0080C2A7C2A52237
:100651008F23120667C2A7C2A5C2A600D2A785230F
:0606610080C2A7C2A52221
:1005DC001206671206677F381206517F38120651D1
:1005EC007F381206517F061206517F0C1206517F7E
:0A05FC00011206511206670206679D
:080667007F0A7EB7DEFEDFFC16
:01066F002268
:1006060043878075985053890F438920758BF375FE
:0B0616008DF3C2ABD28ED2AFD2AC226B
:10062100D2AFD2A9D2AD758911758CFC758A1875B6
:0A063100CDD875CCF0D28CD2CA22CD
:03000000020457A0
:0C045700787FE4F6D8FD75812302049E36
:10035A00BB010689828A83E0225002E722BBFE02A1
:09036A00E32289828A83E49322D4
:10052700C2D5E830E70FB2D5E4C39BFBE49AFAE4FF
:1005370099F9E498F8EC30E717B2D512055D120384
:10054700C5E4C39BFBE49AFAE499F9E498F88003BD
:100557001203C530D50DE4C39FFFE49EFEE49DFD65
:04056700E49CFC22F2
:10037300EB9FF5F0EA9E42F0E99D42F0EC6480C801
:0603830064809845F022A1
:100463000201E0E493A3F8E493A34003F68001F2CE
:1004730008DFF48029E493A3F85407240CC8C3339A
:10048300C4540F4420C8834004F456800146F6DF69
:10049300E4800B010204081020408090000EE47EEB
:1004A300019360BCA3FF543F30E509541FFEE4935E
:1004B300A360010ECF54C025E060A840B8E493A325
:1004C300FAE493A3F8E493A3C8C582C8CAC583CA50
:1004D300F0A3C8C582C8CAC583CADFE9DEE780BE08
:0100170000E8
:1003890075F008758200EF2FFFEE33FECD33CDCC2B
:1003990033CCC58233C5829BED9AEC99E5829840AE
:1003A9000CF582EE9BFEED9AFDEC99FC0FD5F0D68B
:1003B900E4CEFBE4CDFAE4CCF9A88222B800C1B9B5
:1003C9000059BA002DEC8BF084CFCECDFCE5F0CBF3
:1003D900F97818EF2FFFEE33FEED33FDEC33FCEB2C
:1003E90033FB10D703994004EB99FB0FD8E5E4F9E7
:1003F900FA227818EF2FFFEE33FEED33FDEC33FCD4
:10040900C933C910D7059BE99A4007EC9BFCE99AC7
:10041900F90FD8E0E4C9FAE4CCFB2275F010EF2F0C
:10042900FFEE33FEED33FDCC33CCC833C810D7070C
:100439009BEC9AE899400AED9BFDEC9AFCE899F847
:0E0449000FD5F0DAE4CDFBE4CCFAE4C8F922DA
:00000001FF
